{
  "_format": "hh-sol-artifact-1",
  "contractName": "SupplyChain",
  "sourceName": "contracts/supplyChain.sol",
  "abi": [
    {
      "inputs": [],
      "stateMutability": "nonpayable",
      "type": "constructor"
    },
    {
      "anonymous": false,
      "inputs": [
        {
          "indexed": false,
          "internalType": "string",
          "name": "productId",
          "type": "string"
        },
        {
          "indexed": false,
          "internalType": "string",
          "name": "certifyingAuthority",
          "type": "string"
        },
        {
          "indexed": false,
          "internalType": "string",
          "name": "certificationType",
          "type": "string"
        }
      ],
      "name": "CertificationAdded",
      "type": "event"
    },
    {
      "anonymous": false,
      "inputs": [
        {
          "indexed": false,
          "internalType": "string",
          "name": "productId",
          "type": "string"
        },
        {
          "indexed": false,
          "internalType": "string",
          "name": "location",
          "type": "string"
        },
        {
          "indexed": false,
          "internalType": "string",
          "name": "checkpoint",
          "type": "string"
        }
      ],
      "name": "LocationUpdated",
      "type": "event"
    },
    {
      "anonymous": false,
      "inputs": [
        {
          "indexed": false,
          "internalType": "string",
          "name": "productId",
          "type": "string"
        },
        {
          "indexed": false,
          "internalType": "string",
          "name": "location",
          "type": "string"
        }
      ],
      "name": "ProductDelivered",
      "type": "event"
    },
    {
      "anonymous": false,
      "inputs": [
        {
          "indexed": false,
          "internalType": "string",
          "name": "productId",
          "type": "string"
        },
        {
          "indexed": false,
          "internalType": "string",
          "name": "productName",
          "type": "string"
        },
        {
          "indexed": true,
          "internalType": "address",
          "name": "owner",
          "type": "address"
        }
      ],
      "name": "ProductRegistered",
      "type": "event"
    },
    {
      "anonymous": false,
      "inputs": [
        {
          "indexed": true,
          "internalType": "address",
          "name": "user",
          "type": "address"
        },
        {
          "indexed": false,
          "internalType": "enum SupplyChain.UserType",
          "name": "userType",
          "type": "uint8"
        }
      ],
      "name": "UserRegistered",
      "type": "event"
    },
    {
      "inputs": [
        {
          "internalType": "string",
          "name": "productId",
          "type": "string"
        },
        {
          "internalType": "string",
          "name": "certifyingAuthority",
          "type": "string"
        },
        {
          "internalType": "string",
          "name": "certificationType",
          "type": "string"
        }
      ],
      "name": "addCertification",
      "outputs": [],
      "stateMutability": "nonpayable",
      "type": "function"
    },
    {
      "inputs": [
        {
          "internalType": "string",
          "name": "productId",
          "type": "string"
        }
      ],
      "name": "getProduct",
      "outputs": [
        {
          "internalType": "string",
          "name": "productName",
          "type": "string"
        },
        {
          "internalType": "string",
          "name": "supplierName",
          "type": "string"
        },
        {
          "internalType": "string",
          "name": "certificationDetails",
          "type": "string"
        },
        {
          "internalType": "string",
          "name": "currentCheckpoint",
          "type": "string"
        },
        {
          "internalType": "bool",
          "name": "isDelivered",
          "type": "bool"
        },
        {
          "components": [
            {
              "internalType": "string",
              "name": "certifyingAuthority",
              "type": "string"
            },
            {
              "internalType": "string",
              "name": "certificationType",
              "type": "string"
            },
            {
              "internalType": "uint256",
              "name": "timestamp",
              "type": "uint256"
            }
          ],
          "internalType": "struct SupplyChain.Certification[]",
          "name": "certifications",
          "type": "tuple[]"
        }
      ],
      "stateMutability": "view",
      "type": "function"
    },
    {
      "inputs": [
        {
          "internalType": "address",
          "name": "user",
          "type": "address"
        }
      ],
      "name": "getUserType",
      "outputs": [
        {
          "internalType": "enum SupplyChain.UserType",
          "name": "",
          "type": "uint8"
        }
      ],
      "stateMutability": "view",
      "type": "function"
    },
    {
      "inputs": [
        {
          "internalType": "string",
          "name": "productId",
          "type": "string"
        },
        {
          "internalType": "string",
          "name": "location",
          "type": "string"
        }
      ],
      "name": "markAsDelivered",
      "outputs": [],
      "stateMutability": "nonpayable",
      "type": "function"
    },
    {
      "inputs": [],
      "name": "owner",
      "outputs": [
        {
          "internalType": "address",
          "name": "",
          "type": "address"
        }
      ],
      "stateMutability": "view",
      "type": "function"
    },
    {
      "inputs": [
        {
          "internalType": "string",
          "name": "productId",
          "type": "string"
        },
        {
          "internalType": "string",
          "name": "productName",
          "type": "string"
        },
        {
          "internalType": "string",
          "name": "supplierName",
          "type": "string"
        },
        {
          "internalType": "string",
          "name": "certificationDetails",
          "type": "string"
        }
      ],
      "name": "registerProduct",
      "outputs": [],
      "stateMutability": "nonpayable",
      "type": "function"
    },
    {
      "inputs": [
        {
          "internalType": "enum SupplyChain.UserType",
          "name": "userType",
          "type": "uint8"
        }
      ],
      "name": "registerUser",
      "outputs": [],
      "stateMutability": "nonpayable",
      "type": "function"
    },
    {
      "inputs": [
        {
          "internalType": "string",
          "name": "productId",
          "type": "string"
        },
        {
          "internalType": "string",
          "name": "location",
          "type": "string"
        },
        {
          "internalType": "string",
          "name": "checkpoint",
          "type": "string"
        }
      ],
      "name": "updateLocation",
      "outputs": [],
      "stateMutability": "nonpayable",
      "type": "function"
    }
  ],
  "bytecode": "0x608060405234801561001057600080fd5b5033600260006101000a81548173ffffffffffffffffffffffffffffffffffffffff021916908373ffffffffffffffffffffffffffffffffffffffff160217905550611bab806100616000396000f3fe608060405234801561001057600080fd5b50600436106100885760003560e01c80638799d6fc1161005b5780638799d6fc146101165780638b3f863f146101325780638da5cb5b14610162578063f6bde1161461018057610088565b806302b8c8cd1461008d57806305d4a7f5146100a95780634aceba3a146100c557806368111cce146100e1575b600080fd5b6100a760048036038101906100a2919061117a565b61019c565b005b6100c360048036038101906100be9190611250565b6103b1565b005b6100df60048036038101906100da91906111e4565b61050b565b005b6100fb60048036038101906100f691906111a3565b610666565b60405161010d969594939291906117c5565b60405180910390f35b610130600480360381019061012b91906112e7565b610ad8565b005b61014c60048036038101906101479190611151565b610e40565b6040516101599190611727565b60405180910390f35b61016a610e96565b604051610177919061170c565b60405180910390f35b61019a60048036038101906101959190611250565b610ebc565b005b600060048111156101d6577f4e487b7100000000000000000000000000000000000000000000000000000000600052602160045260246000fd5b600481111561020e577f4e487b7100000000000000000000000000000000000000000000000000000000600052602160045260246000fd5b600160003373ffffffffffffffffffffffffffffffffffffffff1673ffffffffffffffffffffffffffffffffffffffff16815260200190815260200160002060009054906101000a900460ff166004811115610293577f4e487b7100000000000000000000000000000000000000000000000000000000600052602160045260246000fd5b146102d3576040517f08c379a00000000000000000000000000000000000000000000000000000000081526004016102ca906118c9565b60405180910390fd5b80600160003373ffffffffffffffffffffffffffffffffffffffff1673ffffffffffffffffffffffffffffffffffffffff16815260200190815260200160002060006101000a81548160ff0219169083600481111561035b577f4e487b7100000000000000000000000000000000000000000000000000000000600052602160045260246000fd5b02179055503373ffffffffffffffffffffffffffffffffffffffff167f8e18574f8a7333e6a87112742a55853a643e2f0550f4e1a3a2c3f1bb2994441d826040516103a69190611727565b60405180910390a250565b600080846040516103c291906116f5565b908152602001604051809103902060000180546103de90611a6a565b90501415610421576040517f08c379a000000000000000000000000000000000000000000000000000000000815260040161041890611849565b60405180910390fd5b60008360405161043191906116f5565b908152602001604051809103902060040160009054906101000a900460ff1615610490576040517f08c379a000000000000000000000000000000000000000000000000000000000815260040161048790611889565b60405180910390fd5b600080846040516104a191906116f5565b90815260200160405180910390209050818160030190805190602001906104c992919061101c565b507f8fc04a2048043402249af762fc1eb8eb6f6d38dac593775a6a83c3e74c2c28c88484846040516104fd93929190611779565b60405180910390a150505050565b6000808360405161051c91906116f5565b9081526020016040518091039020600001805461053890611a6a565b9050141561057b576040517f08c379a000000000000000000000000000000000000000000000000000000000815260040161057290611849565b60405180910390fd5b60008260405161058b91906116f5565b908152602001604051809103902060040160009054906101000a900460ff16156105ea576040517f08c379a00000000000000000000000000000000000000000000000000000000081526004016105e190611889565b60405180910390fd5b600080836040516105fb91906116f5565b9081526020016040518091039020905060018160040160006101000a81548160ff0219169083151502179055507f2c134c30985f8ffa7a2ef25a19d880c8b5f3c1fe21627e26f974f0e0cafa1f368383604051610659929190611742565b60405180910390a1505050565b606080606080600060606000808860405161068191906116f5565b9081526020016040518091039020905060008160000180546106a290611a6a565b905014156106e5576040517f08c379a00000000000000000000000000000000000000000000000000000000081526004016106dc90611849565b60405180910390fd5b806000018160010182600201836003018460040160009054906101000a900460ff168560050185805461071790611a6a565b80601f016020809104026020016040519081016040528092919081815260200182805461074390611a6a565b80156107905780601f1061076557610100808354040283529160200191610790565b820191906000526020600020905b81548152906001019060200180831161077357829003601f168201915b505050505095508480546107a390611a6a565b80601f01602080910402602001604051908101604052809291908181526020018280546107cf90611a6a565b801561081c5780601f106107f15761010080835404028352916020019161081c565b820191906000526020600020905b8154815290600101906020018083116107ff57829003601f168201915b5050505050945083805461082f90611a6a565b80601f016020809104026020016040519081016040528092919081815260200182805461085b90611a6a565b80156108a85780601f1061087d576101008083540402835291602001916108a8565b820191906000526020600020905b81548152906001019060200180831161088b57829003601f168201915b505050505093508280546108bb90611a6a565b80601f01602080910402602001604051908101604052809291908181526020018280546108e790611a6a565b80156109345780601f1061090957610100808354040283529160200191610934565b820191906000526020600020905b81548152906001019060200180831161091757829003601f168201915b5050505050925080805480602002602001604051908101604052809291908181526020016000905b82821015610abc578382906000526020600020906003020160405180606001604052908160008201805461098f90611a6a565b80601f01602080910402602001604051908101604052809291908181526020018280546109bb90611a6a565b8015610a085780601f106109dd57610100808354040283529160200191610a08565b820191906000526020600020905b8154815290600101906020018083116109eb57829003601f168201915b50505050508152602001600182018054610a2190611a6a565b80601f0160208091040260200160405190810160405280929190818152602001828054610a4d90611a6a565b8015610a9a5780601f10610a6f57610100808354040283529160200191610a9a565b820191906000526020600020905b815481529060010190602001808311610a7d57829003601f168201915b505050505081526020016002820154815250508152602001906001019061095c565b5050505090509650965096509650965096505091939550919395565b600260009054906101000a900473ffffffffffffffffffffffffffffffffffffffff1673ffffffffffffffffffffffffffffffffffffffff163373ffffffffffffffffffffffffffffffffffffffff1614610b68576040517f08c379a0000000000000000000000000000000000000000000000000000000008152600401610b5f906118a9565b60405180910390fd5b60008085604051610b7991906116f5565b90815260200160405180910390206000018054610b9590611a6a565b905014610bd7576040517f08c379a0000000000000000000000000000000000000000000000000000000008152600401610bce90611869565b60405180910390fd5b60008085604051610be891906116f5565b9081526020016040518091039020905083816000019080519060200190610c1092919061101c565b5082816001019080519060200190610c2992919061101c565b5081816002019080519060200190610c4292919061101c565b506040518060400160405280600a81526020017f5265676973746572656400000000000000000000000000000000000000000000815250816003019080519060200190610c9092919061101c565b5060008160040160006101000a81548160ff021916908315150217905550338160040160016101000a81548173ffffffffffffffffffffffffffffffffffffffff021916908373ffffffffffffffffffffffffffffffffffffffff1602179055508060050160405180606001604052806040518060400160405280601581526020017f496e697469616c2043657274696669636174696f6e000000000000000000000081525081526020016040518060400160405280600881526020017f566572696669656400000000000000000000000000000000000000000000000081525081526020014281525090806001815401808255809150506001900390600052602060002090600302016000909190919091506000820151816000019080519060200190610dbf92919061101c565b506020820151816001019080519060200190610ddc92919061101c565b506040820151816002015550503373ffffffffffffffffffffffffffffffffffffffff167fdc62d3d2ce3bcf04d8c0c001c3d1b9b793bc83b6a8d7de0cb99d77b4504cb5af8686604051610e31929190611742565b60405180910390a25050505050565b6000600160008373ffffffffffffffffffffffffffffffffffffffff1673ffffffffffffffffffffffffffffffffffffffff16815260200190815260200160002060009054906101000a900460ff169050919050565b600260009054906101000a900473ffffffffffffffffffffffffffffffffffffffff1681565b60008084604051610ecd91906116f5565b90815260200160405180910390206000018054610ee990611a6a565b90501415610f2c576040517f08c379a0000000000000000000000000000000000000000000000000000000008152600401610f2390611849565b60405180910390fd5b60008084604051610f3d91906116f5565b908152602001604051809103902090508060050160405180606001604052808581526020018481526020014281525090806001815401808255809150506001900390600052602060002090600302016000909190919091506000820151816000019080519060200190610fb192919061101c565b506020820151816001019080519060200190610fce92919061101c565b506040820151816002015550507fcce5c285bbabf3af0380b182db10ee9a99f05c72a5d38d4c95a637827699715d84848460405161100e93929190611779565b60405180910390a150505050565b82805461102890611a6a565b90600052602060002090601f01602090048101928261104a5760008555611091565b82601f1061106357805160ff1916838001178555611091565b82800160010185558215611091579182015b82811115611090578251825591602001919060010190611075565b5b50905061109e91906110a2565b5090565b5b808211156110bb5760008160009055506001016110a3565b5090565b60006110d26110cd8461191a565b6118e9565b9050828152602081018484840111156110ea57600080fd5b6110f5848285611a28565b509392505050565b60008135905061110c81611b4e565b92915050565b60008135905061112181611b65565b92915050565b600082601f83011261113857600080fd5b81356111488482602086016110bf565b91505092915050565b60006020828403121561116357600080fd5b6000611171848285016110fd565b91505092915050565b60006020828403121561118c57600080fd5b600061119a84828501611112565b91505092915050565b6000602082840312156111b557600080fd5b600082013567ffffffffffffffff8111156111cf57600080fd5b6111db84828501611127565b91505092915050565b600080604083850312156111f757600080fd5b600083013567ffffffffffffffff81111561121157600080fd5b61121d85828601611127565b925050602083013567ffffffffffffffff81111561123a57600080fd5b61124685828601611127565b9150509250929050565b60008060006060848603121561126557600080fd5b600084013567ffffffffffffffff81111561127f57600080fd5b61128b86828701611127565b935050602084013567ffffffffffffffff8111156112a857600080fd5b6112b486828701611127565b925050604084013567ffffffffffffffff8111156112d157600080fd5b6112dd86828701611127565b9150509250925092565b600080600080608085870312156112fd57600080fd5b600085013567ffffffffffffffff81111561131757600080fd5b61132387828801611127565b945050602085013567ffffffffffffffff81111561134057600080fd5b61134c87828801611127565b935050604085013567ffffffffffffffff81111561136957600080fd5b61137587828801611127565b925050606085013567ffffffffffffffff81111561139257600080fd5b61139e87828801611127565b91505092959194509250565b60006113b6838361168f565b905092915050565b6113c7816119bb565b82525050565b60006113d88261195a565b6113e2818561197d565b9350836020820285016113f48561194a565b8060005b85811015611430578484038952815161141185826113aa565b945061141c83611970565b925060208a019950506001810190506113f8565b50829750879550505050505092915050565b61144b816119cd565b82525050565b61145a81611a16565b82525050565b600061146b82611965565b611475818561198e565b9350611485818560208601611a37565b61148e81611b29565b840191505092915050565b60006114a482611965565b6114ae818561199f565b93506114be818560208601611a37565b6114c781611b29565b840191505092915050565b60006114dd82611965565b6114e781856119b0565b93506114f7818560208601611a37565b80840191505092915050565b600061151060178361199f565b91507f50726f6475637420646f6573206e6f742065786973742e0000000000000000006000830152602082019050919050565b600061155060178361199f565b91507f50726f6475637420616c7265616479206578697374732e0000000000000000006000830152602082019050919050565b600061159060238361199f565b91507f50726f647563742068617320616c7265616479206265656e2064656c6976657260008301527f65642e00000000000000000000000000000000000000000000000000000000006020830152604082019050919050565b60006115f660258361199f565b91507f4f6e6c7920636f6e7472616374206f776e65722063616e20657865637574652060008301527f746869732e0000000000000000000000000000000000000000000000000000006020830152604082019050919050565b600061165c601a8361199f565b91507f5573657220697320616c726561647920726567697374657265640000000000006000830152602082019050919050565b600060608301600083015184820360008601526116ac8282611460565b915050602083015184820360208601526116c68282611460565b91505060408301516116db60408601826116e6565b508091505092915050565b6116ef81611a0c565b82525050565b600061170182846114d2565b915081905092915050565b600060208201905061172160008301846113be565b92915050565b600060208201905061173c6000830184611451565b92915050565b6000604082019050818103600083015261175c8185611499565b905081810360208301526117708184611499565b90509392505050565b600060608201905081810360008301526117938186611499565b905081810360208301526117a78185611499565b905081810360408301526117bb8184611499565b9050949350505050565b600060c08201905081810360008301526117df8189611499565b905081810360208301526117f38188611499565b905081810360408301526118078187611499565b9050818103606083015261181b8186611499565b905061182a6080830185611442565b81810360a083015261183c81846113cd565b9050979650505050505050565b6000602082019050818103600083015261186281611503565b9050919050565b6000602082019050818103600083015261188281611543565b9050919050565b600060208201905081810360008301526118a281611583565b9050919050565b600060208201905081810360008301526118c2816115e9565b9050919050565b600060208201905081810360008301526118e28161164f565b9050919050565b6000604051905081810181811067ffffffffffffffff821117156119105761190f611afa565b5b8060405250919050565b600067ffffffffffffffff82111561193557611934611afa565b5b601f19601f8301169050602081019050919050565b6000819050602082019050919050565b600081519050919050565b600081519050919050565b6000602082019050919050565b600082825260208201905092915050565b600082825260208201905092915050565b600082825260208201905092915050565b600081905092915050565b60006119c6826119ec565b9050919050565b60008115159050919050565b60008190506119e782611b3a565b919050565b600073ffffffffffffffffffffffffffffffffffffffff82169050919050565b6000819050919050565b6000611a21826119d9565b9050919050565b82818337600083830152505050565b60005b83811015611a55578082015181840152602081019050611a3a565b83811115611a64576000848401525b50505050565b60006002820490506001821680611a8257607f821691505b60208210811415611a9657611a95611acb565b5b50919050565b7f4e487b7100000000000000000000000000000000000000000000000000000000600052602160045260246000fd5b7f4e487b7100000000000000000000000000000000000000000000000000000000600052602260045260246000fd5b7f4e487b7100000000000000000000000000000000000000000000000000000000600052604160045260246000fd5b6000601f19601f8301169050919050565b60058110611b4b57611b4a611a9c565b5b50565b611b57816119bb565b8114611b6257600080fd5b50565b60058110611b7257600080fd5b5056fea2646970667358221220586fd8190e2926f16e9b58b0c55d29a03b51686fac79a8c9543f1aa7ebe17da864736f6c63430008000033",
  "linkReferences": {},
  "deployedLinkReferences": {}
}